{
  "contractName": "Contest",
  "abi": [
    {
      "inputs": [],
      "payable": false,
      "stateMutability": "nonpayable",
      "type": "constructor"
    },
    {
      "constant": true,
      "inputs": [
        {
          "internalType": "uint256",
          "name": "",
          "type": "uint256"
        }
      ],
      "name": "contestants",
      "outputs": [
        {
          "internalType": "uint256",
          "name": "id",
          "type": "uint256"
        },
        {
          "internalType": "string",
          "name": "name",
          "type": "string"
        },
        {
          "internalType": "uint256",
          "name": "voteCount",
          "type": "uint256"
        }
      ],
      "payable": false,
      "stateMutability": "view",
      "type": "function"
    },
    {
      "constant": true,
      "inputs": [],
      "name": "contestantsCount",
      "outputs": [
        {
          "internalType": "uint256",
          "name": "",
          "type": "uint256"
        }
      ],
      "payable": false,
      "stateMutability": "view",
      "type": "function"
    }
  ],
  "bytecode": "0x608060405234801561001057600080fd5b506100556040518060400160405280600381526020017f546f6d000000000000000000000000000000000000000000000000000000000081525061009e60201b60201c565b6100996040518060400160405280600581526020017f4a6572727900000000000000000000000000000000000000000000000000000081525061009e60201b60201c565b6101be565b6001600081548092919060010191905055506040518060600160405280600154815260200182815260200160008152506000806001548152602001908152602001600020600082015181600001556020820151816001019080519060200190610108929190610119565b506040820151816002015590505050565b828054600181600116156101000203166002900490600052602060002090601f016020900481019282601f1061015a57805160ff1916838001178555610188565b82800160010185558215610188579182015b8281111561018757825182559160200191906001019061016c565b5b5090506101959190610199565b5090565b6101bb91905b808211156101b757600081600090555060010161019f565b5090565b90565b61020b806101cd6000396000f3fe608060405234801561001057600080fd5b50600436106100365760003560e01c8063dfd50f521461003b578063ec63d1c8146100f0575b600080fd5b6100676004803603602081101561005157600080fd5b810190808035906020019092919050505061010e565b6040518084815260200180602001838152602001828103825284818151815260200191508051906020019080838360005b838110156100b3578082015181840152602081019050610098565b50505050905090810190601f1680156100e05780820380516001836020036101000a031916815260200191505b5094505050505060405180910390f35b6100f86101d0565b6040518082815260200191505060405180910390f35b6000602052806000526040600020600091509050806000015490806001018054600181600116156101000203166002900480601f0160208091040260200160405190810160405280929190818152602001828054600181600116156101000203166002900480156101c05780601f10610195576101008083540402835291602001916101c0565b820191906000526020600020905b8154815290600101906020018083116101a357829003601f168201915b5050505050908060020154905083565b6001548156fea265627a7a72315820f555e100f659f1ba0430ffb1d9608e48f70d8fac87384160ccece3793b72e49564736f6c63430005100032",
  "source": "// SPDX-License-Identifier: GPL-3.0\npragma solidity >=0.4.22 <0.9.0;\n\n// creating the contract\n/**\n * The Contest contract does this and that...\n */\ncontract Contest {\n\n    // creating structure to model the contestant\n    struct Contestant { // close to array\n        uint id;\n        string name;\n        uint voteCount;\n    }\n\n    // use mapping to get or fetch the contestant\n    mapping(uint => Contestant) public contestants; // public state variable\n\n    // add a public STATE variable to keep track of contestant Count\n    uint public contestantsCount;\n\n    constructor () public {\n        addContestant(\"Tom\");\n        addContestant(\"Jerry\");\n    }\n\n    // add a function to add contestant\n    // memory keyword required since 0.5.0 solidity breaking changes\n    // in this case fix next issue: \n    // 'TypeError: Data location must be \"storage\" or \"memory\" for parameter in function, but none was given'\n    function addContestant (string memory _name) private { \n        // underscore - it for private variable, for state variable\n        // it's a convention to start pr var with '_'\n        contestantsCount ++;\n        contestants[contestantsCount] = Contestant(contestantsCount, _name, 0);\n    }\n}\n\n\n\n\n\n\n\n\n\n\n\n\n\n\n\n\n    // string public contestant;\n\n    // constructor() public {\n    //     contestant = \"Tom\";\n    // }",
  "sourcePath": "/home/FINTECHINNOVATION.LAN/vstepanov/sublime/contest/contracts/Contest.sol",
  "compiler": {
    "name": "solc",
    "version": "0.5.16+commit.9c3226ce.Emscripten.clang"
  },
  "schemaVersion": "3.4.7",
  "updatedAt": "2022-04-22T20:51:20.802Z",
  "networkType": "ethereum",
  "devdoc": {
    "methods": {}
  },
  "userdoc": {
    "methods": {},
    "notice": "The Contest contract does this and that..."
  }
}