{
  "contractName": "Contest",
  "abi": [
    {
      "inputs": [],
      "payable": false,
      "stateMutability": "nonpayable",
      "type": "constructor"
    },
    {
      "constant": true,
      "inputs": [
        {
          "internalType": "uint256",
          "name": "",
          "type": "uint256"
        }
      ],
      "name": "contestants",
      "outputs": [
        {
          "internalType": "uint256",
          "name": "id",
          "type": "uint256"
        },
        {
          "internalType": "string",
          "name": "name",
          "type": "string"
        },
        {
          "internalType": "uint256",
          "name": "voteCount",
          "type": "uint256"
        }
      ],
      "payable": false,
      "stateMutability": "view",
      "type": "function"
    },
    {
      "constant": true,
      "inputs": [],
      "name": "contestantsCount",
      "outputs": [
        {
          "internalType": "uint256",
          "name": "",
          "type": "uint256"
        }
      ],
      "payable": false,
      "stateMutability": "view",
      "type": "function"
    }
  ],
  "bytecode": "0x608060405234801561001057600080fd5b506100556040518060400160405280600381526020017f546f6d00000000000000000000000000000000000000000000000000000000008152506100e260201b60201c565b6100996040518060400160405280600581526020017f4a657272790000000000000000000000000000000000000000000000000000008152506100e260201b60201c565b6100dd6040518060400160405280600381526020017f416e6400000000000000000000000000000000000000000000000000000000008152506100e260201b60201c565b610202565b600160008154809291906001019190505550604051806060016040528060015481526020018281526020016000815250600080600154815260200190815260200160002060008201518160000155602082015181600101908051906020019061014c92919061015d565b506040820151816002015590505050565b828054600181600116156101000203166002900490600052602060002090601f016020900481019282601f1061019e57805160ff19168380011785556101cc565b828001600101855582156101cc579182015b828111156101cb5782518255916020019190600101906101b0565b5b5090506101d991906101dd565b5090565b6101ff91905b808211156101fb5760008160009055506001016101e3565b5090565b90565b61020b806102116000396000f3fe608060405234801561001057600080fd5b50600436106100365760003560e01c8063dfd50f521461003b578063ec63d1c8146100f0575b600080fd5b6100676004803603602081101561005157600080fd5b810190808035906020019092919050505061010e565b6040518084815260200180602001838152602001828103825284818151815260200191508051906020019080838360005b838110156100b3578082015181840152602081019050610098565b50505050905090810190601f1680156100e05780820380516001836020036101000a031916815260200191505b5094505050505060405180910390f35b6100f86101d0565b6040518082815260200191505060405180910390f35b6000602052806000526040600020600091509050806000015490806001018054600181600116156101000203166002900480601f0160208091040260200160405190810160405280929190818152602001828054600181600116156101000203166002900480156101c05780601f10610195576101008083540402835291602001916101c0565b820191906000526020600020905b8154815290600101906020018083116101a357829003601f168201915b5050505050908060020154905083565b6001548156fea265627a7a7231582086f1562acb31e9e8a956e26f615cb0d6ed73087c9bf574713e7405f23084caa164736f6c63430005100032",
  "source": "// SPDX-License-Identifier: GPL-3.0\npragma solidity >=0.4.22 <0.9.0;\n\n// creating the contract\n/**\n * The Contest contract does this and that...\n */\ncontract Contest {\n\n    // creating structure to model the contestant\n    struct Contestant { // close to array\n        uint id;\n        string name;\n        uint voteCount;\n    }\n\n    // use mapping to get or fetch the contestant\n    mapping(uint => Contestant) public contestants;\n\n    // add a public variable to keep track of contestant Count\n    uint public contestantsCount;\n\n    constructor () public {\n        addContestant(\"Tom\");\n        addContestant(\"Jerry\");\n        addContestant(\"And\");\n\n    }\n\n    // add a function to add contestant\n    // memory keyword required since 0.5.0 solidity breaking changes\n    // in this case fix next issue: 'TypeError: Data location must be \"storage\" or \"memory\" for parameter in function, but none was given'\n    function addContestant (string memory _name) private { \n        // underscore - it for private variable, for state variable\n        // it's a convention to start pr var with '_'\n        contestantsCount ++;\n        contestants[contestantsCount] = Contestant(contestantsCount, _name, 0);\n    }\n}\n\n\n\n\n\n\n\n\n\n\n\n\n\n\n\n\n    // string public contestant;\n\n    // constructor() public {\n    //     contestant = \"Tom\";\n    // }",
  "sourcePath": "/home/FINTECHINNOVATION.LAN/vstepanov/sublime/contest/contracts/Contest.sol",
  "compiler": {
    "name": "solc",
    "version": "0.5.16+commit.9c3226ce.Emscripten.clang"
  },
  "schemaVersion": "3.4.7",
  "updatedAt": "2022-04-21T17:22:42.953Z",
  "networkType": "ethereum",
  "devdoc": {
    "methods": {}
  },
  "userdoc": {
    "methods": {},
    "notice": "The Contest contract does this and that..."
  }
}